:100000009EC20000D4C20000D2C20000D0C20000D4
:10001000CEC20000CCC20000CAC20000C8C20000AC
:10002000C6C20000C4C20000C2C200000C94F81E88
:100030000C94BC1E0C94D81FBAC20000B8C20000B9
:10004000B6C20000B4C20000B2C200000C94B21FDD
:10005000AEC20000ACC20000AAC20000A8C20000EC
:10006000A6C20000A4C20000A2C20000A0C20000FC
:100070009EC2000005010902A10185020901A1003B
:100080000509190129081500250195087501810246
:100090000501093009311581257F95027508810612
:1000A00009381581257F950175088106050C0A38E8
:1000B000021581257F950175088106C0C0050109DB
:1000C00080A101850319012AB700150126B7009503
:1000D0000175108100C0050C0901A10185041901F9
:1000E0002AA002150126A002950175108100C00604
:1000F00060FF0961A1010962150026FF00952075C6
:100100000881020963150026FF00952075089102F9
:10011000C005010906A101050719E029E715002519
:10012000019508750181029501750881010507197E
:100130000029FF150026FF009506750881000508B7
:1001400019012905150025019505750191029501F3
:1001500075039101C0FD377A585A000004E6D6B401
:10016000460200210116000000742FE5A3E001B94A
:1001700000BA5D003D888986D3DC0AE842C3249238
:100180005842588FD8E75CA0D2616E26E888019A61
:10019000676C7887BC8D3709EA0E1459A53C7985C0
:1001A00086633FDCC445A3F020FF20B36838F4E148
:1001B00047483D20387AB85DE617311BE7995FEB79
:1001C0006D8A6745BAE4C53CB1C013FF21534F9D0A
:1001D0007530D2BC075A9D17F30BFA930324C9B9A3
:1001E0002364CCEDE47FA3EBAD1289ABF21EA5A98D
:1001F0002912D58AFCF5071AD6EC210314DE4CDE51
:100200005220DC15CF341051410D403BA588EB2620
:10021000BF522416E1F407BC1B262368EE8609CFE3
:100220000D9DE26991FFA83DFD40E8BB81100000F3
:100230000019D83130D2E885640001D601BA030034
:1002400000F812DB4AB1C467FB0200000000045949
:100250005A290014001A000800150017001C001885
:10026000000C00120013002A002B430400160007A4
:100270000009000A000B000D000E000F00330034CF
:1002800000E1001D001B0006001900050011001010
:10029000003600370038001E7CE000E200E3006515
:1002A0000022522C00000021525000510052004FF9
:1002B0000035001E001F0020002100220023002422
:1002C000002500260027004C00010001000100016C
:1002D000000100010001002D002E002F0030003130
:1002E00000010044004500680069006A006B006C72
:1002F000006D006E006F0001000100010001003977
:100300000001000100000001004A004E004B004DBA
:100310000035021E021F02200221022202230224B3
:10032000022502260227024C000100010001000103
:10033000000100010001002D022E022F02300231C7
:100340000201003A003B003C003D003E003F0040FF
:10035000004100420043000100010001000100399A
:10036000000100010000000100AB00AA00A900AEDE
:10037000002900B200B500B100B300010001000186
:100380000001000100460001000100010001000120
:100390000001000100010001000100010001000155
:1003A0000001000100010001000100010001000145
:1003B0000001000100010001000100010001000135
:1003C000000100010000000100CF00CE00CD00D0F0
:1003D0000009025B00030100A0FA09040000010308
:1003E00001010009211101000122440007058103D8
:1003F00008000109040100020300000009211101A5
:1004000000012222000705820320000107050303E3
:10041000200001090402000103000000092111016C
:100420000001227B00070584032000011201000265
:100430000000000803A172040200010203011C0372
:100440007600690061006C003A00660036003400F6
:100450006300320062003300630000001A0355009D
:100460005400340037002E00320020004E006F0090
:100470004C0045004400000010034B00650079006B
:1004800068006900760065000000040309040000AC
:10049000000000000000000000000000000000005C
:1004A000000000000000000000000000000000004C
:1004B00000007E0F00D4FFFFFFC70000007800009F
:1004C0000000000000002A2B2800000000000000AF
:1004D00000000000000000000029000000002C1EA9
:1004E0003420212224342627252E362D3738271E66
:1004F0001F202122232425263333362E37381F048C
:1005000005060708090A0B0C0D0E0F101112131423
:1005100015161718191A1B1C1D2F3130232D3504E1
:1005200005060708090A0B0C0D0E0F101112131403
:1005300015161718191A1B1C1D2F3130354C112494
:100540001FBECFEFD4E0DEBFCDBF04B603FE18C0A0
:100550008091D8039091D903A091DA03B091DB0385
:100560008730904BA740B04B59F41092D8031092AB
:10057000D9031092DA031092DB03E0E0F8E3099567
:1005800011E0A0E0B1E0ECEAF0E502C005900D92C8
:10059000A237B107D9F723E0A2E7B1E001C01D926D
:1005A000A83DB207E1F70E9401200C94542828CD01
:1005B000A82FB62F2091D70340918E03241302C099
:1005C00080E0089530E0C90169E070E00E94C4272E
:1005D000FC01E157FC4F8181B81306C08081A8134C
:1005E00003C085818111EDCF2F5F3F4F2770E6CF8C
:1005F000E0918C03F0918D03309739F00284F385FC
:10060000E02D309711F060E2099508952091E40003
:100610003091E50085E69091EC0090FF06C0909146
:10062000E80090FF06C080E008959091E80092FDF8
:10063000FACF90918203992391F0953091F09091A7
:10064000EB0095FD10C04091E4005091E5002417A7
:10065000350709F381509A01F1F684E0089582E0AC
:10066000089583E0089581E008958091840387FFD1
:1006700013C08091E80082FF06C08091E8008B776C
:100680008093E80004C0809182038111F2CF089525
:10069000809182038823D9F38091E80080FFF8CF0E
:1006A0008091E8008E77ECCF982F9093E900242F6B
:1006B000762F50E0891731F07091EC002091ED0019
:1006C0005091F00021FD07C09F5F953071F7809336
:1006D000E90081E008953091EB003E7F3093EB001C
:1006E0003091ED003D7F3093ED003091EB003160B3
:1006F0003093EB007093EC002093ED005093F000EA
:100700002091EE0027FDE0CF80E00895FC0180916C
:100710008A0390918B0386179707A0F061157105E6
:1007200029F49091E8009E779093E80090E061159D
:10073000710551F4911108C08091E80082FF32C028
:1007400080E00895BC01F2CF809182038823B1F14B
:100750008530B1F18091E80083FD2EC08091E800E2
:1007600082FDEACF8091E80080FFE1CF2091F20086
:1007700030E06115710519F02830310558F091E02D
:100780002830310509F090E02091E8002E77209381
:10079000E800CDCF81918093F100615071092F5F06
:1007A0003F4FE7CF80918203882341F0853041F0AD
:1007B0008091E80083FFC0CF81E0089582E0089532
:1007C00083E0089508952FB7F89480917303909172
:1007D0007403A0917503B09176032FBF08958091A3
:1007E0000E010895E4E7F1E09281891301C01282BD
:1007F000319691E0EA37F907B9F70895A6E7B1E035
:10080000EFEF90E02D91821751F0EF3F19F4211195
:1008100001C0E92F9F5F9630A9F7EF3F09F40895D3
:100820000E2E000CFF0BEC58FE4F82830895A3E0C0
:10083000B0E0EDE1F4E00C940528209170033091D4
:10084000710328173907B1F09093710380937003F7
:10085000E0918C03F0918D03309761F00084F18575
:10086000E02D309739F024E029839B838A83CE01E1
:10087000019609952396E2E00C942128A3E0B0E0CC
:10088000E4E4F4E00C94052820916E0330916F03AA
:1008900028173907B1F090936F0380936E03E091AE
:1008A0008C03F0918D03309761F00084F185E02D89
:1008B000309739F023E029839B838A83CE01019608
:1008C00009952396E2E00C942128E0918C03F091A5
:1008D0008D03309739F00190F081E02D309711F0C1
:1008E0000995089580E008954115510511F0FA0128
:1008F0000995089568DF20916403211104C02091B7
:100900006503222321F0909361038093600320917B
:100910006603211104C020916703222321F09093E4
:100920005F0380935E03E0918C03F0918D03309719
:1009300059F00680F781E02D309731F082E0809306
:10094000620382E693E00995089580915D0380FD3E
:1009500018C081FD18C082FD18C080915C038823F7
:10096000B1F0883290F490E023E0880F991F2A9527
:10097000E1F768E270E00E94D527862F672B39F0F7
:10098000089582E0089584E0089588E0089581E064
:10099000089580915D0380FD15C081FD15C082FD25
:1009A00017C080915B03882389F08E3188F490E032
:1009B00060E570E00E94C4276EE170E00E94D527D8
:1009C000862F089584E1089588E2089588E00895C7
:1009D00080E50895082E000C990B65EB70E00E94ED
:1009E000C42797FF04C080589109892F0895805823
:1009F0009F4FFBCFA0915403509155034A2F54139E
:100A000001C00895242F30E0F901EE0FFF1FE45BD1
:100A1000FC4F608171816817790791F467E070E09D
:100A20000E94C42785559D4F51E0FC0154834A1311
:100A3000E8CF2F5F3F4F237033272093540308954F
:100A40002F5F3F4F422F4370DACF1092A9021092CE
:100A5000A802EBEAF2E08581811102C014821682BD
:100A6000379682E0E33EF807B1F70895E0EEF1E053
:100A700090E080E06DE47DE141E75DE120EC3CE168
:100A8000768365835087478332872187968785875A
:100A900001963F968830910599F7089581152CE7C6
:100AA000920741F42091580330915903232B11F4FC
:100AB00090E080E0089580E00895F894E82FE295B2
:100AC000EF70F0E031A1282F2F7081E090E001C09D
:100AD000880F2A95EAF7982F9095932391A392A1D6
:100AE000892B82A3789408959091B00192FF10C051
:100AF00041E0282F2471243009F040E031E0282F14
:100B00002871283009F030E0431711F02CE08227DB
:100B100093FF10C041E0282F2471243109F040E0F8
:100B200031E0282F2871283109F030E0431711F007
:100B30002CE082273091B10130FF10C051E0282F06
:100B40002171213009F050E041E0282F2871283030
:100B500009F040E0541711F029E0822731FF10C05E
:100B600041E0282F2171213109F040E031E0282FA8
:100B70002871283109F030E0431711F029E082276D
:100B800094FD877E089582389105B9F1B0F48133E0
:100B9000910509F47DC048F48932910509F46DC0CE
:100BA0008A32910509F479C008958533910509F4D5
:100BB0005FC08933910509F10895833E9105D9F10C
:100BC00038F4803E910529F1823E910579F108952E
:100BD000863E9105D9F1873E910509F43EC0843ED9
:100BE000910541F52091B10121FF24C08091B00110
:100BF00084FD19C087EE90E008952091B001237024
:100C000009F056C02091B10123FF14C089E290E0A1
:100C100008952091B00120FD38C03091B10130FF1E
:100C200009C024FF3FC090E080E008952091B0010A
:100C300022FDF7CF08952091B00122FD36C03091FA
:100C4000B10130FD35C024FDEECFF4CF2091B001CD
:100C500023FFF0CF24FDE7CFCDCF2091B00123FDBE
:100C60002AC03091B10131FFEECF84EE90E00895BB
:100C70002091B00125FDCACF08952091B00125FD36
:100C80001DC02091B10123FFD5CF89E390E00895E5
:100C90002091B00126FD15C008952091B00126FDD8
:100CA00013C0089583EE90E0089582EE90E00895D9
:100CB00080EE90E0089586EE90E0089585E390E060
:100CC00008958AE290E0089581E390E0B3CF1F9306
:100CD000CF93DF9358DFEC01C11580E5D807E8F525
:100CE000C11580E4D80708F0A9C0C03ED10518F5A9
:100CF000CD3CD10508F091C0C83AD10570F4C53A91
:100D0000D10508F082C0C130D10511F118F0C4300E
:100D1000D105F0F4D0E0C0E01BC0C33CD105D0F752
:100D2000C85AD0E0CC0FDD1FC45EDE4F0990D881D9
:100D3000C02DD4640DC0C11580E2D80708F0C5C02D
:100D4000C11581E0D80708F06AC0C83ED10510F788
:100D5000CE01DF91CF911F910895C03682E5D8076B
:100D600028F5C03482E5D80708F076C0C03282E5A5
:100D7000D80708F06AC0C11582E5D80708F48DC00D
:100D80002C2F2695269530E0D5E0220F331FDA95DB
:100D9000E1F78C2F8370C1E0D0E002C0CC0FDD1FE3
:100DA0008A95E2F7C22BD32BDD68D2CFC03C82E517
:100DB000D807F8F4C03A82E5D80708F064C0C03814
:100DC00082E5D80708F0A6CF2C2F26952695277008
:100DD00030E0F5E0220F331FFA95E1F78C2F837096
:100DE000C1E0D0E002C0CC0FDD1F8A95E2F7DA68DF
:100DF00047C0C03E82E5D80708F08CCFDC2FCC2757
:100E0000CC27DF71C06FD06AA3CFC55AD0E0C75ED0
:100E1000DE4FC881D0E0D0649BCFD06599CF8D2FB5
:100E200063DE182FCE019927AEDEC12FD0E0DC2F74
:100E3000CC27CC27DF71C82BD92B8ACFCE0199279D
:100E4000A2DECC27DF70D06AF6CFCF71D0E0DC2FE6
:100E5000CC27C16FD06A7CCF2C2F26952695277082
:100E600030E0A5E0220F331FAA95E1F78C2F8370A5
:100E7000C1E0D0E002C0CC0FDD1F8A95E2F7DC684C
:100E8000C22BD32B65CF8C2F8F712EDEC82FD0E0D5
:100E9000DC2FCC27CC27DF715BCF8C2F8F7124DE2A
:100EA00055E0D695C7955A95E1F7CF70D0E0DC2F85
:100EB000CC27282F30E084FF06C044E0220F331FE8
:100EC0004A95E1F73327D069DBCF8D2F8F710CDE88
:100ED000182FCE01992757DEC12FD0E0DC2FCC2769
:100EE000CC27DF719062A7CF8091D70390918E03BA
:100EF000981301C008958F5F8770FACF282F943020
:100F000088F58C3078F5892F90E06CE070E00E94D5
:100F1000C427820F911DA82FA77023E0969587956F
:100F20002A95E1F763E070E00E94C427FC01E358D2
:100F3000FE4F50E040E080E0219130E00A2E02C0F8
:100F4000369527950A94E2F721703327042E01C0C5
:100F5000220F0A94EAF7822B4F5F5F4F433051050F
:100F600059F7089580E00895CF93DF93282F362F07
:100F70009430B0F58C30A0F5892F90E06CE070E0F3
:100F80000E94C427820F911D282F2770E1E001C025
:100F9000EE0F2A95EAF723E0969587952A95E1F7D3
:100FA00063E070E00E94C427DC01A358BE4F50E00C
:100FB00040E0632F70E08D91ED0121979B01042E9D
:100FC00002C0369527950A94E2F7217021952827CB
:100FD0002E23282728834F5F5F4F4330510559F751
:100FE000DF91CF9108958093AF0108959091AF0163
:100FF00021E030E0F90101C0EE0F8A95EAF7D9014E
:1010000002C0AA0FBB1F6A95E2F7EA2B01C0220FAC
:101010004A95EAF7892F8E23E81303C0292B822FE4
:10102000E2CF20952923FBCF21E030E001C0220F41
:101030008A95EAF720958091AF018223D4CF21E0F1
:1010400030E001C0220F8A95EAF78091AF01822B30
:10105000CACF0F931F93CF9301E010E0082E01C079
:10106000000F0A94EAF7C0915A039C2F902341F491
:10107000E6DFC027C0935A03CF911F910F910895C7
:10108000D3DFF7CF8093AE010895662309F453C0F0
:101090008D3C29F47EDC8195809365032BCC8E3CBE
:1010A00011F477DCF9CF8F3C29F473DC81958093C0
:1010B0006403F4CF803D11F46CDCF9CF893D21F459
:1010C00044DC80936603EACF8A3D19F43EDC8195C7
:1010D000F8CF8B3D29F439DC819580936703DECF0F
:1010E0008C3D11F432DCF9CF9FE2980F983070F408
:1010F000815D990B21E030E001C0220F8A95EAF76B
:1011000080916303822B80936303C8CF8D3D31F4BC
:1011100080915D03816080935D03C0CF8E3D21F49B
:1011200080915D038260F7CF8F3D09F0B7CF80914A
:101130005D038460F0CF8D3CD9F49091650397FFF7
:101140001DC01092650380916403811106C08091D7
:101150006503811102C010925B03809166038111C7
:101160009DCF80916703811199CF10925C0396CF38
:101170008E3CD9F49091650319161CF39FE2980FE9
:10118000983008F03FC0815D990B21E030E0A90163
:1011900002C0440F551F8A95E2F7CA0180959091CD
:1011A0006303892380936303CECF909164038F3CC4
:1011B00029F497FFE3CF10926403C5CF803D19F463
:1011C0001916CCF3DBCF90916603893D29F41916EB
:1011D000ACF610926603B7CF8A3D19F497FFCECFD5
:1011E000F8CF8B3D39F49091670397FFC7CF1092EA
:1011F0006703A9CF8C3D09F0C1CF90916703191601
:10120000B4F3BCCF8D3D31F480915D038E7F80932C
:101210005D0399CF8E3D21F480915D038D7FF7CFE3
:101220008F3D09F090CF80915D038B7FF0CF982F99
:1012300092959F7020E011F0892F24E0982F9695C9
:10124000969511F02E5F892F982F969509F02F5FB4
:10125000822F08959C013A9521153F4150F5FC01DC
:10126000EE27F170BC0166277270AC014427547000
:101270009C012227387094FF0EC080E0EF2B09F00C
:1012800080E1672B09F08062452B09F08064232BF5
:1012900089F08068089581E0EF2B09F480E0672BE6
:1012A00009F08260452B09F08460232B19F08860D7
:1012B000089580E008950F931F93CF93DF938B01E0
:1012C000EA0190918203943059F58093E9008FEF01
:1012D0009091E800815095FD06C095ED9A95F1F743
:1012E00000008111F5CF8091E80085FF19C08ED9EB
:1012F000811111C08091E80085FD06C08091E80051
:101300008E778093E800F3CFF80181918F0180936D
:10131000F100219779F78091E8008E778093E800BB
:10132000DF91CF911F910F91089543E050E0BC01F0
:1013300084E0C1CF46E050E0BC0184E0BCCFCF9355
:10134000DF93EC0148E050E0BC0181E0B4DF88E0CD
:10135000FE01A8E7B3E001900D928A95E1F7DF91D5
:10136000CF910895603229F4BC0140E250E082E060
:10137000A2CF089581E08093E00080E28093D800BE
:101380001092C9008FE19EE40197F1F700C00000C0
:1013900087E090EBDC018093D8039093D903A0936E
:1013A000DA03B093DB0388E19CE00FB6F894A895CC
:1013B000809360000FBE90936000FFCF1F93CF9388
:1013C000DF93843020F5643010F54C3000F5122F97
:1013D000E82F862F90E068E170E00E94C427C42FB8
:1013E000D0E0CC0FDD1FC80FD91F8E2F90E060E634
:1013F00070E00E94C427C80FD91F632FCE018996C1
:101400000E948627612FCE018A960E948627DF914F
:10141000CF911F91089585E290E00E946A2787325C
:1014200089F486E290E00E946A27893559F487E2C0
:1014300090E00E946A2791E0863509F090E0892FBC
:101440008170089580E0FCCFA1E0B0E0EAE2FAE02C
:101450000C9405289B01275B3D4F673B714081053C
:10146000910530F0198289812196E2E00C942128BF
:10147000C9010E946A278983F6CF0F931F93CF93E8
:10148000DF93843068F5643058F54C3048F5282FE8
:10149000862F90E068E170E00E94C427C42FD0E05E
:1014A000CC0FDD1FC80FD91F822F90E060E670E0DF
:1014B0000E94C427C80FD91FCE0189960E946A27AF
:1014C000082F10E0102F0027CE018A960E946A276D
:1014D0009801282BC901DF91CF911F910F91089599
:1014E00090E080E0F8CF2091CA013091CB01232B0E
:1014F00091F4703F39F4603F71F48091CC01909188
:10150000CD010895743038F46C3028F4843018F428
:10151000462F672FB2CF90E080E00895CF92DF9200
:10152000FF920F931F93CF93DF936C010091AF0154
:101530008091AE01082BC3E0D0E010E0FC2EC80182
:101540000C2E02C0959587950A94E2F780FD0CC099
:101550002197A0F7F12C8F2DDF91CF911F910F9143
:10156000FF90DF90CF900895B6018C2FBCDFAFDBEA
:10157000019771F3F0CFCF93DF93EC01CFDFBE0182
:10158000B2DFA5DBDF91CF910895FC0124812223F6
:10159000E1F087819085009781F099DB92959F70AB
:1015A0009630A9F070F49250923078F4803F19F0A0
:1015B00050F4883E50F481E0089580819181DBDF12
:1015C000EDCF9A50F1CF843FB1F380E00895883E8B
:1015D00090F3813FD1F7EFCFA6E0B0E0E2EFFAE081
:1015E0000C940428FC01878190850097D1F4CF01E9
:1015F00026E0DE01119601900D922A95E1F7FC019B
:10160000258189819A81222381F0662371F086DF0A
:10161000182F682F89819A81A7DC69817A81812FAF
:1016200062DF2696E3E00C94202868DC182FF5CFC3
:10163000A0E1B0E0EEE1FBE00C94F727CE010196CB
:101640005C0180E1F50111928A95E9F70DE110E066
:1016500097EB492E55245394612C712C29E4822E4A
:1016600022E0922E0150110921F46096E0E10C94E1
:1016700013286201F1E14F165104610471042CF04A
:1016800080E1C82ED12CE12CF12CA601B401C501BA
:101690000E9477278C0C9D1C0D2C000CEE08FF0877
:1016A0004C185D086E087F08DDCFAAE0B0E0EBE5DE
:1016B000FBE00C94FC27A0905803B090590381E004
:1016C00090E0909359038093580310E000E0C80124
:1016D00060E370E00E94C4276C01912C1BC0F701ED
:1016E000EC0DFD1DEE0FFF1FEF5AFD4F25913491BC
:1016F0004E2D692D802F62DE8FEFE81AF80A9CE0EC
:10170000E916F10461F7ECE0CE0ED11C9394F4E0FD
:101710009F1619F0F12CE12CE2CF0F5F1F4F043020
:101720001105A9F61A8219821C821B821E821D8253
:1017300018861F8288EC90E09A87898709EA11E071
:10174000CE0101967C014AE050E0B801C7010E9439
:10175000A427065F1F4F093F91E01907A1F78AE010
:10176000F70111928A95E9F74AE050E0B801C70104
:101770000E94A427065F1F4F0934F2E01F07A1F75C
:10178000B0925903A09258032A96EBE00C941828C3
:101790006FEF85E290E00E9486276FEF86E290E08F
:1017A0000E9486276FEF87E290E00E94862760E024
:1017B00088E290E00E94862778DF3ADF67E285E2E0
:1017C00090E00E94862769E586E290E00E948627E5
:1017D00066E587E290E00C948627883088F49B01C8
:1017E00090E06AE070E00E94C427BC0167557E4F1C
:1017F0004AE050E0C9010E945A2790E080E0089535
:101800008FEF9FEF0895AAE0B0E0E9E0FCE00C94D0
:1018100005289C0137552F3F310509F060F4BE01C2
:101820006F5F7F4FDADF892B31F489859A852A969D
:10183000E2E00C94212888EC90E0F9CFAAE0B0E037
:10184000E4E2FCE00C94FF27E8E5F2E080E5DF014C
:101850001D928A95E9F7EBEAF2E088E3DF011D9239
:101860008A95E9F788E5C82E82E0D82E7F0109EF36
:1018700011E0F701D182C0824AE050E0B801CE0108
:1018800001960E945A2788E0FE013196D601019008
:101890000D928A95E1F789859A85D70113969C93D5
:1018A0008E931297BAE0CB0ED11CE7E0EE0EF11C3E
:1018B000065F1F4F0934F2E01F07D9F62A96E8E0C9
:1018C0000C941B288091770390916B03892B809354
:1018D000740148E050E068E971E084E791E00E941B
:1018E0004028892BB9F088E0E4E7F1E0A8E9B1E00D
:1018F00001900D928A95E1F7E0918C03F0918D03B0
:10190000309741F00280F381E02D309719F084E7A1
:1019100091E009950895CF93C6E0E6E7F1E0DF0195
:101920008C2F1D928A95E9F790E080E00E943E049A
:1019300090E080E00E94170410926B03C3DFE2E6A0
:10194000F3E0DF011D92CA95E9F710925B03109254
:101950005C0310925D030E947A04CF910895AAE27D
:10196000B0E0E5EBFCE00C940428E4E8F3E08091BF
:10197000F100819383E0EC38F807C9F78091850383
:10198000833009F47AC008F5813009F451C08230FF
:1019900009F4C0C08091E80083FFFAC080918403FD
:1019A000909185039A3008F0F3C0E92FF0E0E552FA
:1019B000F34F0C94E8279B0DC10DC80DC10DC80D48
:1019C000190E3B0EC80D410F4E0F8A3009F491C01D
:1019D0008B3009F46FC08930E9F68091840381323D
:1019E000C9F68091880390918903009711F00297BE
:1019F00089F68091E800877F8093E8008091E80075
:101A000082FF36C08091F200823031F48091F10083
:101A1000813011F0863021F48091F10080930E0125
:101A20008091E8008B778093E8000E943503B2CF65
:101A300080918403813A09F0ADCF8091E800877FDF
:101A40008093E8008091880390918903892B61F04D
:101A500060E090E080E070E00E9486038091E80002
:101A60008B778093E80096CF68E088E793E0F3CF28
:101A7000809182038111C2CF8DCF80918403813AFE
:101A800009F088CF8091880390918903892B09F010
:101A900081CF8091E800877F8093E8008091E80003
:101AA00080FFFCCF80910F018093F1008091E800CE
:101AB0008E77B9CF80918403813209F06BCF80910A
:101AC000880390918903892B09F064CF8091E80005
:101AD000877F8093E8000E94350381E09091860320
:101AE000911101C080E080930F011092770313DF02
:101AF00051CF80918403813209F04CCF8091E8006E
:101B0000877F8093E8000E9435038091870380934C
:101B10000D0140CF80918403813A09F03BCF809141
:101B2000E800877F8093E8008091E80080FFFCCF89
:101B300080910D01B9CF803889F0823849F58091C4
:101B400088038F70853020F58093E9008091EB0049
:101B500085FB882780F91092E90006C080918003F8
:101B600090918103911182609091E800977F90930A
:101B7000E8008093F1001092F1008091E8008E77E8
:101B800027C0282F2D7F21F48823A1F0823029F14E
:101B90008091E80083FF0AC08091E800877F8093EE
:101BA000E8008091EB0080628093EB00AA96E3E06E
:101BB0000C94202880918603813051F7933009F0EE
:101BC00080E0809381031092E9008091E800877F94
:101BD0008093E8000E943503DBCF8091860381115A
:101BE000F2CF809188038F702FEF280F243080F67A
:101BF0008093E9002091EB0020FFE5CF933031F492
:101C00008091EB0080628093EB00DDCF9091EB0040
:101C100090619093EB0021E030E001C0220F8A95A3
:101C2000EAF72093EA001092EA008091EB008860C6
:101C3000EACF8111ADCF109186031F778091E30029
:101C40008078812B8093E3008091E800877F8093E8
:101C5000E8000E9435038091E80080FFFCCF80916E
:101C6000E30080688093E30083E0111101C082E00B
:101C7000809382038DCF8058823008F089CF2091E5
:101C80008603309187032C3DA3E03A07A1F583E05A
:101C90008A838AE289834FB7F894DE01139620E0A5
:101CA0003EE051E2E32FF0E050935700E49120FF33
:101CB00003C0E295EF703F5FEF708E2F90E0EA3047
:101CC000C0F0C7968D939D932F5F243159F74FBF76
:101CD0008091E800877F8093E8006AE270E0CE019F
:101CE00001960E9486038091E8008B778093E8003C
:101CF0004FCFC096E7CF8091880390918903432FFF
:101D000055274330510509F44FC078F5413051054E
:101D100009F445C08BE590E0E1EDF3E04230510578
:101D200009F036CF2091E800277F2093E80020912A
:101D30008A0330918B038217930708F49C0140E0DB
:101D40002115310509F06EC041116CC08091E80089
:101D500082FDC9CF80918203882329F2853019F250
:101D60008091E80083FFF2CFBECF4132510509F4E4
:101D70004AC04232510509F00BCF8330910508F07B
:101D800007CFFC01EE0FFF1FEB59FE4F0190F081D2
:101D9000E02D8E599E4FDC018C9190E020C082E1B5
:101DA00090E0ECE2F4E0BECF332721303105D9F0EA
:101DB00078F022303105F9F02330310509F0E8CE12
:101DC000EEE3F4E0E4918E2F90E0EEE3F4E007C060
:101DD000EAE8F4E0E4918E2F90E0EAE8F4E000977E
:101DE00009F4D6CE9FCFE8E7F4E0E4918E2F90E09F
:101DF000E8E7F4E0F4CFECE5F4E0E4918E2F90E036
:101E0000ECE5F4E0ECCF8330910508F0C1CE880F0B
:101E1000991FFC01E559FE4F0190F081E02D89E00A
:101E200090E080CF80918203882309F45CCF8530D5
:101E300009F459CF8091E80083FD55CF8091E800E7
:101E400082FD84CF8091E80080FF7ACF8091F200FC
:101E500090E02115310519F08830910550F041E0EE
:101E6000089709F040E08091E8008E778093E800C1
:101E700067CF44914093F10031962150310901968A
:101E8000E8CF803809F084CE8091E800877F809386
:101E9000E800809183038093F1006FCE811178CEAA
:101EA00010918603123008F073CE8091E800877F8E
:101EB0008093E800109383030E9435031123F9F007
:101EC00084E08093820342E061EC81E00E9454034D
:101ED00042E261EC84E00E94540342E261EC82E061
:101EE0000E94540342E260EC83E00E94540380911C
:101EF0008203843051F482E08093100149CE8091B6
:101F0000E30087FDDDCF81E0DCCF81E0F5CF1092EB
:101F1000770301DD2FEF84E39CE021508040904067
:101F2000E1F700C0000088E19CE00FB6F894A895A6
:101F3000809360000FBE90936000FFCFCF93DF933C
:101F4000EC0149855A856D857E850E9474048B81DC
:101F5000982F909580916B03892380936B03B2DC5B
:101F600085E0FE0111928A95E9F7DF91CF910895FE
:101F7000CF93DF93EC018C8181FD10C082608C8354
:101F800080916B039B81892B80936B039BDC4F813A
:101F900058856D857E85CE010E94740410926D0374
:101FA00010926C038C8180FD02C0CE01C7DFDF91EF
:101FB000CF910895882339F0809590916B03892300
:101FC00080936B037FCC0895882331F090916B034D
:101FD000892B80936B0376CC0895882339F0809504
:101FE000909177038923809377036CCC089588239D
:101FF00031F090917703892B8093770363CC089518
:10200000882309F456C0823861F40E94650481FF78
:1020100050C089E30E94FE0355DC89E30E94F2036D
:1020200051CC833851F40E94650480FF42C083E59F
:102030000E94FE0347DC83E5F1CF843851F40E940F
:10204000650482FF36C087E40E94FE033BDC87E420
:10205000E5CF9CEF980F913A08F390E2980F9830F3
:1020600088F4877021E030E0A90102C0440F551FB9
:102070008A95E2F7CA01809590917703892380932E
:102080007703CECF9BE5980F933020F490E080E06B
:102090000C943E0498E5980F9B3120F490E080E08A
:1020A0000C94170493E3980F933118F460E00C94A8
:1020B00045080895CF938823C1F0C82F8238B9F41A
:1020C0000E94650481FD11C089E30E94FE03FADBD2
:1020D0002FEF87EE93E0215080409040E1F700C061
:1020E000000089E30E94F203EDDBCF91089583386D
:1020F00099F40E94650480FDF8CF83E50E94FE03F9
:10210000E1DB2FEF81EE94E0215080409040E1F739
:1021100000C0000083E5E6CF843899F40E9465048E
:1021200082FDE3CF87E40E94FE03CCDB2FEF81EE3C
:1021300094E0215080409040E1F700C0000087E427
:10214000D1CF8CEF8C0F813A70F4E6E7F1E08CE7A9
:1021500091E02191C217E1F18E179F07D1F78C2FE3
:102160000E94FE03C1CF80E28C0F883068F4C770F4
:1021700021E030E001C0220FCA95EAF78091770391
:10218000822B80937703B0CFEBE5EC0FE33040F484
:10219000F0E0E75EFE4F808190E00E943E04A5CF14
:1021A000E8E5EC0FEB3150F4F0E0EE0FFF1FE45EDA
:1021B000FE4F808191810E94170497CF83E38C0F9B
:1021C000833108F092CF61E08C2F0E9445088DCFBB
:1021D0008C2F0E94F20376DBC2CF1F93CF93DF9345
:1021E000182FEB0167DF209731F4812F09DFDF9192
:1021F000CF911F9108958FE99FE00197F1F700C0FB
:1022000000002197F0CFB0E0A0E0E9E0F1E10C940C
:10221000FF276B01C42FD22FFC0185818823A1F0F9
:1022200040936A030E94E3039093690380936803D9
:10223000C77081E001C0880FCA95EAF7D8DECDB734
:10224000DEB7E8E00C941B2810916A03141336C023
:10225000E0906803F09069030E94E3038E199F09E0
:102260007C01C601D0DAE816F90640F5C0E2CD0FD0
:102270001D17B1F080E2810F883040F4177081E0C3
:10228000012E01C0880F0A94EAF7A7DEC830E8F4EF
:1022900081E09D2F977001C0880F9A95EAF7A7DE1D
:1022A00070E060E0802F99DFC83048F6D77081E099
:1022B00001C0880FDA95EAF790DEC1CFC77081E0E0
:1022C00001C0880FCA95EAF7F7CF70E060E0802F71
:1022D00084DFB5CFB0E0A0E0E0E7F1E10C94FE27A9
:1022E000FC01DF012D918D012223D1F1213009F074
:1022F00051C09181913061F482818F010D5F1F4F38
:1023000060E570E0893311F070E060E066DF07C0DF
:10231000923039F48F010D5F1F4F8281CBDEF801BF
:10232000E0CF933031F48F010D5F1F4F828168DE63
:10233000F6CF8F010E5F1F4F943081F492818F0191
:102340000D5F1F4F30E020E0492F4053550BFA013D
:102350004A30510550F02115310599F49111DFCF24
:10236000CDB7DEB7E9E00C941A28C9016AE070E045
:102370000E94C4279F01280F391FF80191918F01F6
:10238000E3CFAFE9BFE01197F1F700C000002150A3
:102390003109E1CFE22FF0E0E254FB4FB490822FFD
:1023A00086958695869590E0FC01E255FB4FE4907A
:1023B0002770F12C022E02C0F594E7940A94E2F7FC
:1023C000B1E0EB22FF24FC01E256FB4FC490D12C7C
:1023D000022E02C0D594C7940A94E2F7E1E0CE221F
:1023E000DD24FC01E257FB4FC491D0E002C0D5953B
:1023F000C7952A95E2F7C170DD27E114F10411F0C9
:1024000081EE58DEC114D10411F086EE53DE70E087
:1024100060E08B2DE2DEC114D10411F086EEF0DD18
:10242000E114F10411F081EEEBDDCD2B09F477CF4F
:1024300070E060E08CE26ACFA8E0B0E0E2E2F2E1B6
:102440000C94F527DC0114962C91222309F41FC269
:102450007C0161E0C1D88C01F7018581882329F1D5
:1024600080916C0390916D030097F9F0081719079C
:10247000E1F099278830910508F072C06FE070E0B4
:102480000E94C42780529E4FDC0114962C91149711
:10249000246014962C9314970D931C9369DD10926D
:1024A0006B0361E0C70198D88C01F701858188230F
:1024B00009F4E2C0C80197578038910508F014C1AB
:1024C000083008F0E4C166EB71E080E090E00E9423
:1024D000240A8111DCC1C12CD12C7601011143C029
:1024E00004E0AE014F5F5F4F1A01D101E02F1D9252
:1024F000EA95E9F746015701FFEF8F1A9F0AAF0AE5
:10250000BF0AC701B6010E94240A8983882309F4FF
:10251000BEC1813011F52601370122E0420E511C67
:10252000611C711CC501B4010E94240A182F8A8302
:10253000882309F4ACC18FEF810F833080F5460109
:10254000570133E0830E911CA11CB11CC301B201E1
:102550000E94240A8B838823F9F0C101BBDE1CC0D2
:1025600090E080E091CFF7EBCF16F1E0DF06E104D9
:10257000F10409F48CC1C701B6010E94240A81113B
:1025800001C001502FEFC21AD20AE20AF20AA6CF06
:102590008D809E80AF80B88475016401A6CF8BEFDB
:1025A000810F8330A8F5D701C6010396A11DB11D87
:1025B0008D839E83AF83B887C301B2010E94240A32
:1025C0008B83882329F34601570194E0890E911CDF
:1025D000A11CB11C6D817E818F8198850E94240A87
:1025E0008C838823C9F28B819C818130AFEF9A075D
:1025F00010F0982F8827163029F0173031F00E94FC
:10260000441DCACF0E940D1DC7CF0E94891CC4CF94
:1026100053014201143009F0BFCFC301B2010E943F
:10262000240A182F46015701B4E08B0E911CA11CFF
:10263000B11CC701B6016D5F7F4F8F4F9F4F0E9446
:10264000240A112309F423C1882309F420C18150ED
:10265000990B6FEF70E00E94C427E12FE150FF0B50
:102660008E0F9F1F019708F497CFAFE9BFE0119736
:10267000F1F700C00000F6CF0115E7E51E0708F4EA
:10268000A8C30115F8E51F0778F5680127E5D21AF8
:1026900066ED71E08C2DA1D8892B31F5C6016FE074
:1026A00070E00E94C42780529E4FDC0112968C91EC
:1026B000813009F094C08091D6019091D701892B87
:1026C00099F08091D8019091D901892B69F080917E
:1026D000DA019091DB01892B39F48091DC01909132
:1026E000DD01892B09F485C0C80197558F3F9105FD
:1026F00011F008F0B3C05801BB24B8E0AB16B10428
:102700000CF0C5C0C5016FE070E00E94C427FC0159
:10271000E052FE4F6F01D70115962C911597FC01E1
:10272000EC51FE4F808120FB80F9808315968C91BF
:10273000882309F470C00E94E3039093BC01809346
:10274000BB01F60182818F5F828380916B03909140
:102750007703892B83834581568165857685C601FC
:102760000E947404D60114968C9181FD51C0902F63
:10277000812F90936C0380936D03F70195819923CA
:1027800009F408C310926A030631FCE71F0709F435
:1027900013C307378CE7180709F4ABC00837ACE759
:1027A0001A0709F4AFC09801205E32452032310586
:1027B00008F0AAC09111A8C00F7181E090E09C01BF
:1027C00002C0220F331F0A95E2F78901622F83E0CE
:1027D00090E00E948627802F0E94420858C08230D5
:1027E00009F082CF8091DA019091DB01892B09F405
:1027F0007BCFC6016FE070E00E94C427FC01EC5162
:10280000FE4F20812E7F208380529E4FB1DB6CCF04
:1028100090E080E0AECFF6014385548565857685EE
:10282000C6010E947404C5016FE070E00E94C427D5
:1028300080529E4FDC0114968C9181FF9ECFC60181
:102840007DDB80916C0390916D030817190709F0E7
:1028500094CF10926D0310926C038FCFF801E85162
:10286000FC47E730F10508F088CFE75CFB4E0C949D
:10287000E8275114571440144B145D146314691461
:1028800006E221EE41EE6AE17CE7C701BCDC289656
:10289000E2E10C94112807E225EE45EE6BE17CE7BE
:1028A000F4CF06E221EE40EE68E17CE7EECF07E2EE
:1028B00025EE44EE69E17CE7E8CF06E221EE42EE48
:1028C0006CE17CE7E2CF07E225EE46EE6DE17CE7C6
:1028D000DCCF08E221E045EE6EE17CE7D6CF89E26D
:1028E0000E94FE030E94620CD2CF89E20E94F20392
:1028F000F9CF81E00E941F0843E062E081E00E947E
:10290000F607C5CF82E0F6CF40915A038091AF0120
:10291000282F30E02095309570E024233723232B97
:1029200019F0482340935A030B373CE7130741F44F
:10293000992309F4ACCF0E9417090E942908A7CF58
:10294000011542E5140750F5011550E5150708F08B
:1029500048C0011580E4180708F060C0992309F405
:1029600075C00130FCE71F0709F4A2C003302CE753
:10297000120709F497C001151C4709F067C01092AF
:1029800077030E948B0C4FEF54E38CE04150504092
:102990008040E1F700C000000E94BA090032A2E5C1
:1029A0001A07E0F20034B2E51B0730F09801205C12
:1029B00032452032310590F6802F8F7120915A03D5
:1029C00030E041E050E0082E02C0440F551F0A9449
:1029D000E2F724233523232B09F2992309F457CF57
:1029E000ACCF980185E0369527958A95E1F7822F3F
:1029F0008F7020915A0330E041E050E0082E02C071
:102A0000440F551F0A94E2F724233523232B09F49E
:102A1000A5CF911192CF1092770364CFF7018681F1
:102A2000807F09F09BCF911111C0812F8F7021E021
:102A300030E002C0220F331F8A95E2F740915A031B
:102A400050E024233523232B09F021CFD7011796FB
:102A50002D913C912115310561F1C9010E94670654
:102A6000182F292FD70115966C91159716963C9122
:102A700032953F70092F02950F700C3008F09CC002
:102A8000E02FF0E0EA5BFA4E0C94E8277015701521
:102A9000AD15AD15D515F315DC15DC15F61560165D
:102AA0006F166F166FEF7FEF90E080E00E94A02717
:102AB0002EDAF70100811181992369F0C8010E9483
:102AC0008E0AD82E682FC8010E94B407B8018D2D38
:102AD0000E94730AC3CFC8010E947E07D82EF6CF8A
:102AE000092F0F70207F11F00295007F6623C1F03F
:102AF000002369F080E2810F883010F011110AC0C4
:102B000080917703082B009377030E94620C812F3A
:102B1000D1DA18C080916B03082B00936B03F5CFBB
:102B2000812F6EDA002371F0009580E2810F8830EA
:102B300010F011110CC080917703082300937703E4
:102B40000E94620C60E0C7010E94EC0AA0CE809156
:102B50006B03082300936B03F3CF892F8F70207FC3
:102B6000203211F08295807F113051F4662321F0DC
:102B7000363040F73CDAE6CF353020F72EDAE2CFB8
:102B8000662319F03323B1F3C2CF3323B9F31933DA
:102B900049F4BFEFE7EEF3E0B150E040F040E1F779
:102BA00000C00000812F2CDACDCF892F8695869525
:102BB000837039F0813071F00850043008F0C2CFD2
:102BC0003FC0812F9370611102C080E090E00E94AD
:102BD0003E04B8CF812F9370611102C080E090E075
:102BE0000E941704AFCF0E944508ACCF892F837095
:102BF00091F5611125C0312F329536953770330F1D
:102C0000330F812F8F70032E01C0880F0A94EAF7CB
:102C100040E014FF07C04FE050E001C0440F3A9578
:102C2000EAF74095269526952370223079F060F4D6
:102C30003091AE01213039F0842B83230E94420869
:102C40000E9465047FCF832B842BF8CF482B809183
:102C5000AE018427F3CF8695662311F0892F81700A
:102C6000882371F3312F329536953770330F330F38
:102C7000812F8F70032E01C0880F0A94EAF740E07D
:102C800014FF07C04FE050E001C0440F3A95EAF747
:102C90004095269526952370223069F050F43091A6
:102CA000AF01213029F0842B83230E94F307C8CF82
:102CB000832B842BFACF482B8091AF018427F5CF4B
:102CC000092F0F70662331F0802F0E941F08812F7B
:102CD0008ED9B6CF82D9802F0E941408B1CF813F00
:102CE00071F148F4803FA9F06623D1F13323A9F1B3
:102CF000812FE0D961CF823F49F1833FA9F780E07E
:102D00006623B1F02F7181E001C0880F2A95EAF7A0
:102D10000FC0662381F0353008F04ECF2F7181E06F
:102D200090E001C0880F2A95EAF79091AF018927BA
:102D30000E94F30741CF363008F03ECFEFCF892F06
:102D40008F71662339F00E941F0836CF892F8F714B
:102D50006623C9F30E9414082FCF822F8F71F3CFFF
:102D6000332371F0193349F42FEF37EE43E021504C
:102D700030404040E1F700C00000812F41D91CCF16
:102D8000822F8F71E7CF80917C01882309F4ADCD2C
:102D900085E3ACCD06315CE71507A9F381E0073781
:102DA000BCE71B0731F00837ECE71E0709F0FBCC46
:102DB00082E00E941408A0CD809177038A7A91E086
:102DC00009F490E090937C01882309F488CD85E391
:102DD00087CD90E0E3CF0F931F93CF93DF93809144
:102DE0009501807F31F480919401C091D7038111C6
:102DF00007C0DF91CF911F910F9108952196C77061
:102E000080918E038C17A9F3D0E0CE0169E070E0C9
:102E10000E94C42781579C4FFC018481882371F351
:102E2000CE0169E070E00E94C427FC01E157FC4F2D
:102E30009181809190019813E1CF908180918F01D1
:102E40009813DCCF85818111D9CF028113818091C4
:102E5000910190919201081B190B60E08FE891E0BD
:102E60000E94EC0A0E94030C0817190738F680919B
:102E700095018F70806180939501CE0169E070E0CB
:102E80000E94C427FC01EB56FC4F90819F7090611B
:102E900090838FE891E0D0DA0E947407AACFA8E16E
:102EA000B0E0E5E5F7E10C94F8278C0186E0F80145
:102EB000DE01539601900D928A95E1F7F801F480B6
:102EC000E5808FE8882E81E0982E80919301811112
:102ED00028C0F11003C0FF24F3941BC0EE20F1F0D2
:102EE000C8010E94C50AF82E8823C1F089E0F801C4
:102EF000AFE8B1E001900D928A95E1F780919301DE
:102F0000813031F480918F01909190010E94BB0A31
:102F100062DF8F2D6896EFE00C941428C8018CDADC
:102F2000DACFC280D380B0909401809191019091CA
:102F300092013601681A790ABB2009F418C1508041
:102F4000A18060E08FE891E00E94EC0A0E94030CEF
:102F50006816790608F0B7C0FF2009F4BCCF80914D
:102F60009501382F307F20919001F8019181311126
:102F70005EC0FE2C29131CC020918F019081291363
:102F800017C04091960150919701278130854217D3
:102F9000530771F4E11044C08F70806180939501F4
:102FA0008FE891E049DA80919501F8018683B1CFED
:102FB000E11036C06A2D852D0E94D8026A2D852D1C
:102FC0000E94D802E82E8111A4CF5B8AAC8A8B893B
:102FD0009C890E94BB0A292F22952F70243058F417
:102FE0009F70223078F0992389F0F8019681907FC4
:102FF00069F4FE2C8ECF2A50223060F0C8011CDA12
:10300000EB2CF7CF992311F0882399F3805E883059
:10301000A8F7EFCF803F68F3815F833078F7E9CF7F
:1030200080919501816080939501F12C72CF2913D5
:103030001DC020918F019081291318C040919601E5
:1030400050919701278130854217530779F4E11099
:103050000DC08683C801F0D989E0F801AFE8B1E07E
:1030600001900D928A95E1F7FB2C53CFC8010E9485
:10307000C50A882309F452CFEE2009F44FCF80917E
:1030800095018032B0F020918F01309190013B8703
:103090002A87DD86CC86909193019E871F86888B38
:1030A00080919601909197019A8B898BCE010A9617
:1030B000C3D989E0F801AFE8B1E001900D928A959B
:1030C000E1F789DE08CF80919501982F907F49F430
:1030D0008FE891E0B1D989E0F40111928A95E9F77E
:1030E000A4CFFF2009F4F7CE20919001F80191813F
:1030F000291319C020918F019081291314C0409188
:10310000960150919701278130854217530759F452
:10311000E11009C08683C8018FD989E0F4011192BA
:103120008A95E9F7A1CFC8010E94C50A882309F44E
:10313000F5CEEE2009F4F2CE80919501803208F4AC
:10314000B8CF20918F01309190013A832983DC829E
:10315000CB82909193019D831E828F8380919601F3
:103160009091970199878887CE010196A1CF60E061
:103170008FE891E00E94EC0A0E94030C6816790621
:1031800008F0A9CFFF2009F4A6CEFE2CEE2009F40A
:10319000C5CE90919001F8018181981335C090912E
:1031A0008F018081981330C0209196013091970152
:1031B000878190852817390739F580919101909181
:1031C0009201C81AD90AF8ECCF16D104A0F4909154
:1031D000950190FD10C0907F71F080919501F801EC
:1031E0008683903F31F0982F907F905F8F70892B6E
:1031F0008683C80121D989E0F801AFE8B1E00190E8
:103200000D928A95E1F785CEC8010E94C50A811109
:1032100050CF80919501816080939501C8010CD9B0
:1032200078CEA2E1B0E0E7E1F9E10C9403280A8747
:103230001B872C873D874E875F87688B798B8A8BAE
:10324000CE010A962CDE81112BC089E0FE013A9650
:10325000DE01119601900D928A95E1F78E85882303
:10326000F9F080918E0390E09C012F5F3F4F277013
:1032700033274091D7034217130659F169E070E0F4
:103280000E94C427DC01A157BC4F99E0FE01319692
:1032900001900D929A95E1F720938E030E94740796
:1032A0008091D70390918E03891711F190E069E026
:1032B00070E00E94C42781579C4FF1DD8823C1F044
:1032C0008091D70390E00196877099278093D70368
:1032D000E7CF109277030E948B0C10928E0310920E
:1032E000D70389E0EFE8F1E0DF011D928A95E9F765
:1032F0006296E4E00C941F28FF920F931F93CF93E4
:10330000DF938091E302C091AA02811134C0CDB74E
:10331000DEB7E5E00C941E28FF24F394FC0EF09237
:10332000AA02D0E0CE016DE070E00E94C427FC014B
:10333000EC51FD4F84818823E9F087819085892BAA
:1033400021F481859285019651F4008111812281B9
:1033500033814481558166817781808562DFCE012A
:103360006DE070E00E94C4278C519D4FFC011482D7
:1033700010926B03CF2D8091E302C81768F2109270
:10338000E3021092AA02C3CF109257031092560381
:1033900010920C0180915503809354030E942505DF
:1033A000ABCF4F925F927F928F929F92AF92BF92DC
:1033B000CF92DF92EF92FF920F931F93CF93DF9301
:1033C000C091540301E010E084E0882E9924939486
:1033D000809155038C1313C08FDF0E942505DF9168
:1033E000CF911F910F91FF90EF90DF90CF90BF9002
:1033F000AF909F908F907F905F904F9008954C2E4C
:10340000512CF201EE0FFF1FE45BFC4F2081318154
:10341000C90167E070E00E94C42785559D4FEC010B
:103420008C81811163C0A090E302A4EEB2E0F0E0D1
:10343000E0E0B12CEA1508F056C01B96ED90FC9028
:103440001C97C90167E070E00E94C42785559D4F15
:10345000EC01C880D9804FEF5FEF712C872D90E091
:10346000BC01660F771F6C0D7D1DEB0168817981B2
:103470006115710531F0E616F70609F4AC01739495
:10348000EDCF4F3F5407C9F1B80102C0660F771F57
:103490004A95E2F7B62AE80102C0CC0FDD1F7A9404
:1034A000E2F7CE010197B816190621F5CF016DE0BC
:1034B00070E00E94C427FC01EC51FD4FC90167E098
:1034C00070E00E94C427DC01A555BD4F12968D9176
:1034D0009C91139790878783848210821182328710
:1034E000218715969C92C9010E94FA04E201219657
:1034F000C3706ECF14961C92149731961D969ACF76
:10350000AEE1B0E0E6E8FAE10C94F5274B8B5C8B7A
:103510006D8B7E8B8F8B988F911110926B03188A15
:10352000198A1A8A86E0FE017396DE011A960190C6
:103530000D928A95E1F78E8581110EC00A851B8553
:103540002C853D854E855F85688979898A8969DE04
:103550006E96E2E10C94112861E0CE010A960E9479
:10356000EC0A61E0CE010A960E94EC0A61E0CE010D
:103570000A960E94EC0A5C018F8560E5A6166CE74E
:10358000B60651F48823E9F081E080930C0181E0D4
:1035900090E080FDD3CFDCCF71E5A7167CE7B706BE
:1035A00021F4882371F0F0DEF2CF92E5A9169CE7B2
:1035B000B90639F4882329F080910C01882321F37E
:1035C000F2CF1BEAE12E12E0F12E512C912C812C2E
:1035D00066246394712CFE013196FA8FE98F44249E
:1035E0004394F70140815181CC24CA94DC2C20E023
:1035F000822F90E0FC01EE0FFF1FE40FF51F6081AA
:1036000071816115710539F0A616B70609F0C6017A
:103610002F5F6C01EDCF10E0FFEFCF16DF0609F44E
:1036200047C0F701448110910C01812F411180E0C6
:10363000182F1170F701358086819F85992309F431
:10364000F9C0112309F4F6C0311014C0A3010C2CE9
:1036500001C0440F0A94EAF7842B86838091A80264
:103660009091A902C29730F462E370E07093A902CE
:103670006093A802C30102C0880F991F2A95E2F740
:103680000197F70126812817190691F4C090560377
:10369000D0905703C114D10409F44EC00E94E30333
:1036A0008C199D09C39708F447C0F701448211E0C3
:1036B000512AFFEF8F1A9F0A67E0E60EF11C78E0AF
:1036C0008716910409F08DCF8F85882309F411C1E5
:1036D000552009F40EC10E94E30390935703809391
:1036E00056038091E302883018F591E0980F90938B
:1036F000E30299E0FE013A96DE01119601900D92E7
:103700009A95E1F790E06DE070E00E94C4278C513B
:103710009D4F29E0FE013196DC0101900D922A9522
:10372000E1F72FEF3FEFFC0132872187B486A386B4
:1037300081E05826852D2DCF20915403009155030B
:10374000322FF0E0E0E0201315C030935403EE1563
:10375000FF0509F4ADCF30E0F901EE0FFF1FE45B88
:10376000FC4F918280822F5F3F4F2370332720933D
:1037700055039ECFC22ED12CF601EE0FFF1FE45B46
:10378000FC4F8081918167E070E00E94C427DC01DA
:10379000A555BD4F6D917C9111977E8F6D8F40E047
:1037A00080E090E0E92FF0E0EE0FFF1F6D8D7E8D41
:1037B000E60FF71F2080318021143104E1F0F7017A
:1037C0000190F081E02DFC8FEB8F80E005C0261684
:1037D000370609F4412F8F5FE82FF0E0EE0FFF1F4F
:1037E0006B8D7C8DE60FF71F60817181611571050E
:1037F00071F79F5FD7CF4423D1F0FD01891708F4FB
:10380000F7014482EE15FF0521F430935403142F81
:103810004FCF231307C0EA17FB0721F4C601019617
:10382000382F3370C6010196282F23708CCFF0E01B
:10383000E0E0F8CF90E0311020C0B30102C0660F85
:10384000771F2A95E2F79B01215031092817390784
:1038500031F4442309F44BC0C4010E94FA04C301AB
:103860000C2C01C0880F0A94EAF7982F9095F70165
:10387000868189238683132D1BCFAC010C2C02C0BB
:10388000559547950A94E2F7BA01617077279C0134
:103890002150310982239323892B29F5672B19F1B4
:1038A000F70182819381892BD9F0E98DFA8D67E048
:1038B00011926A95E9F70E94E303282F8B839C837A
:1038C00074E07D83F70182819381782F88879987BF
:1038D00009811A813C8144E05E816F81892FA1DCDE
:1038E000F7011582BCCFF42FF1703F2EB8CF312EE7
:1038F000B6CF9091540380915503981711F051DD84
:1039000017CFFADC10925703109256030E94250538
:103910000FCFA6E0B0E0EFE8FCE10C9403288C01A7
:103920009093CD018093CC01011580E21807C0F47B
:10393000802F0E940010C8010E942A099801205E71
:1039400031092830310518F00115110531F40E94B4
:10395000ED0F2696E4E00C941F280E94DA0FF9CFB1
:1039600080EF89838A830E94E3038160682F9C83B0
:103970008B8349815A817C8181E090E0C1DDE9CF70
:103980000F931F93CF93DF938C01EB0166ED71E0F2
:103990008C2F0E94ED0B892B71F4DD27C253DE4F73
:1039A0008881F801128218828330E9F048F481306E
:1039B00059F0823081F0DF91CF911F910F910895DE
:1039C0008430B1F08530B9F78091D6019091D7015C
:1039D000009789F306C08091D8019091D901009792
:1039E00099F397DFE8CF8091DA019091DB01F7CF6F
:1039F0008091DC019091DD01009799F72091D6012B
:103A00003091D7018091D8019091D90121153105CC
:103A1000F9F2009731F7C901E4CFA6E0B0E0E3E1A5
:103A2000FDE10C9403288C019093CD018093CC018F
:103A3000011580E21807C0F4C8010E942A09980104
:103A4000205E31092830310518F00115110549F4BF
:103A50000E94F70F802F0E945A102696E4E00C94E3
:103A60001F280E94E40FF6CF80EF89838A830E948B
:103A7000E3038160682F9C838B8349815A817C8119
:103A800081E091E03DDDE9CFCF93DF93EC01C5DF2D
:103A9000CE013FDFDF91CF9108950F931F93CF9316
:103AA000DF938C01862F66ED71E00E94ED0B892B70
:103AB00099F4C091D601D091D701209769F0F8010F
:103AC0008281833039F4CE01DFDFCE01DDDFCE012C
:103AD000DBDF02C08430D8F7DF91CF911F910F91C7
:103AE00008950F931F93CF93DF938C01EB0166ED45
:103AF00071E08C2F0E94ED0B892B09F059C0FE015B
:103B0000FF27D80112968C911297E253FE4F813015
:103B1000B9F414969C9192FF02C080830AC090FF72
:103B2000FCCF82E080838091D8019091D9010097E9
:103B3000B9F48091D6019091D7010097C9F110C0D6
:103B40008230A1F514968C9182FD26C080FD0AC0BA
:103B500083E080838091DA019091DB010097F1F09E
:103B60005CDF26C084E080838091DC019091DD01E0
:103B70000097B1F78091D6019091D7010097E9F0B5
:103B800083DF8091D8019091D901009749F7809106
:103B9000D6019091D701E4CF85E080838091D60152
:103BA0009091D701009721F06FDFF1CF86E08083FD
:103BB000DF91CF911F910F9108958091D80190913D
:103BC000D901BBCFA6E0B0E0E8EEFDE10C940328FC
:103BD0000E94E3038C018091A0019091A1018017C4
:103BE000910779F019821A820E94E303682F4981B4
:103BF0005A81792F80E090E083DC1093A10100933B
:103C0000A0012696E4E00C941F28A8E0B0E0EBE0C9
:103C1000FEE10C94F9278E010F5F1F4F88E0F80139
:103C200011928A95E9F792E5E92E91E0F92E680163
:103C300066246394712C32E6832E31E0932EF701D3
:103C400081917F018F3F09F445C0F894E82FE295F8
:103C5000EF70F0E021A18F70A30102C0440F551F47
:103C60008A95E2F7CA01922F982B91A392A1809591
:103C7000892382A3789400C0E6E5F1E021E030E0FA
:103C8000B12CA12C41914F3F09F44DC0A42FA29516
:103C9000AF70B0E090968C9190E04F7002C0959517
:103CA00087954A95E2F780FD3EC0C901A82AB92A46
:103CB000220F331F8E169F0629F7F7013197808157
:103CC0008F3F11F00E945D0550EA5A95F1F7F60119
:103CD000B182A082F2E0CF0ED11C46E5E41641E0AD
:103CE000F40609F0ACCF48E050E0B80186EA91E074
:103CF0000E944028892BE1F088E0F801A6EAB1E0B3
:103D000001900D928A95E1F781E08093A4010E94D1
:103D1000E3039093A3018093A20110E0812F2896E2
:103D2000EEE00C94152890E080E0C0CF10E021C0B8
:103D30001091A401112389F3E090A201F090A30156
:103D40000E94E3038E199F09059738F348E050E07D
:103D500066EA71E082EC91E00E944028892B31F301
:103D600088E0E6EAF1E0A2ECB1E001900D928A95DC
:103D7000E1F71092A401D2CF1F920F920FB60F92CB
:103D800011242F933F934F935F936F937F938F9360
:103D90009F93AF93BF93CF93EF93FF93C091E900AD
:103DA000CF708091EC001092E9008091F000877F45
:103DB0008093F00078940E94AF0C1092E9008091FB
:103DC000F00088608093F000C093E900FF91EF91CC
:103DD000CF91BF91AF919F918F917F916F915F91A3
:103DE0004F913F912F910F900FBE0F901F901895FC
:103DF0001F920F920FB60F9211242F933F934F9360
:103E00005F936F937F938F939F93AF93BF93EF9342
:103E1000FF938091E10082FF09C08091E20082FF60
:103E200005C08091E1008B7F8093E1008091E100EB
:103E300080FF1AC08091E20080FF16C08091E200EE
:103E40008E7F8093E2008091E20080618093E200A7
:103E50008091D80080628093D80019BC85E080935F
:103E6000820383E0809310018091E10084FF2FC0E2
:103E70008091E20084FF2BC084E089BD86E089BD8B
:103E800009B400FEFDCF8091D8008F7D8093D800CB
:103E90008091E1008F7E8093E1008091E2008F7E2F
:103EA0008093E2008091E20081608093E200809143
:103EB0008303882309F44CC084E0809382038091BB
:103EC0008203843009F44CC081E08093100180911A
:103ED000E10083FF2CC08091E20083FF28C0809125
:103EE000E100877F8093E10082E08093820310925B
:103EF00083038091E1008E7F8093E1008091E20056
:103F00008E7F8093E2008091E20080618093E200E6
:103F100042E060E080E00E9454038091F0008860FD
:103F20008093F00081E08093100180930F01FF9156
:103F3000EF91BF91AF919F918F917F916F915F9121
:103F40004F913F912F910F900FBE0F901F9018959A
:103F50008091E30087FD02C081E0AFCF83E0ADCF69
:103F600082E0B3CF78941F920F920FB60F92112474
:103F70008F939F93AF93BF9380917303909174033A
:103F8000A0917503B09176030196A11DB11D809398
:103F9000730390937403A0937503B0937603BF915A
:103FA000AF919F918F910F900FBE0F901F9018951A
:103FB0001F920F920FB60F9211248F939F93AF937E
:103FC000BF9380917203811113C08091730390910C
:103FD0007403A0917503B09176034196A11DB11DA4
:103FE0008093730390937403A0937503B093760347
:103FF000BF91AF919F918F910F900FBE0F901F9027
:104000001895A8E3B0E0E6E0F0E2EFC784B7877F59
:1040100084BF0FB6F894A895809160008861809362
:104020006000109260000FBE80E890E00FB6F89438
:1040300080936100909361000FBE11E01093100116
:104040008BE595E090937301809372010E94360591
:104050000E941E0C1092E2001092E1008091E0009C
:1040600081608093E0008091D8008F778093D800A2
:1040700019BC809163008160809363001092A50158
:10408000809163008E7F809363001093A50110924E
:10409000E2001092E1008091D8008F778093D800E1
:1040A0008091D80080688093D8008091D8008F7D5F
:1040B0008093D80084E089BD86E089BD09B400FE04
:1040C000FDCF10928203109283031092810310920D
:1040D000800342E060E080E00E9454038091E100B0
:1040E0008E7F8093E1008091E20081608093E20006
:1040F0008091E20088608093E2008091E0008E7FF2
:104100008093E0008091E20084608093E2007894E4
:1041100080918203882399F01091E9001F708091AB
:10412000EC0080FF8DC080E8182B1092E900809190
:10413000E80083FD0E94AF0C1F701093E90082E03D
:1041400084BD93E095BD9AEF97BD80936E000E9469
:104150000B0A811102C00E94C80B81E90E945D0513
:1041600082E90E945D0583E90E945D0584E90E9461
:104170005D0506E511E0D8018D918D018F3F11F0AD
:104180000E945D05B1E002361B07A9F788E0E2EC6A
:10419000F1E0DF01282F1D922A95E9F7E6EAF1E028
:1041A000DF011D928A95E9F790E080E09BD6833E7F
:1041B0009E4F21F40E940B0A811123C063EE7EEF13
:1041C00090E080E0BDD660E082E090E09FD681E0A4
:1041D0008093AE0161E083E090E098D660E074E106
:1041E00084E090E0ADD60E94C80B40E050E0BA01F8
:1041F0008FE090E09DD640E050E0BA0183E190E08E
:1042000097D682E090E066D68093B20184E090E099
:1042100069D69093B1018093B001F7DCEFE3FCE93C
:104220003197F1F700C00000F0DC8091C20180FFFF
:1042300009C06FEF7FEF90E080E082D60E94BA095C
:1042400080E072CF83E090E045D60E94420880E093
:1042500091E090938D0380938C039E012F5F3F4FDD
:104260003901AE014D5F5F4F5AAB49AB809182037C
:1042700010E404E0E6E0FE2E853009F492C0C5DCCF
:1042800063EBA62E61E0B62E72EC872E71E0972EBE
:10429000D401F501219131918D919D9141E0EB3B4C
:1042A000F40709F48AC028173907A1F3512CD40167
:1042B0000D911D914D01F501C190D1905F01C01686
:1042C000D10659F1412CEE24E394F12CC026D126DD
:1042D000C6018E219F21892BB1F04BA65CA60E94BE
:1042E000E3039EA78DA7F1E0FFA791E098012E219F
:1042F0003F21232B09F490E098AB4BA55CA56DA55D
:104300007EA58FA5FDD84394EE0CFF1C2CE0421235
:10431000DFCFF501329711830083539434E05312B9
:10432000C6CF8FB7F8944091730350917403609196
:104330007503709176038FBF45C0809182038430EE
:1043400019F11092720388E190E00FB6F894A895E5
:10435000809360000FBE1093600083B7817F8460FC
:1043600083BF83B7816083BF7894889583B78E7F3E
:1043700083BF0FB6F894A895809160008861809300
:104380006000109260000FBE40DCE2ECF1E0819131
:104390009191892B09F057C5AAECB1E0AE17BF0780
:1043A000B1F780918203853009F4C7CF109277036B
:1043B0000E948B0C0E94650462CF2817390709F010
:1043C00075CF00DC00916C0310916D030115110590
:1043D00019F1E090BB01F090BC010E94E3038E193B
:1043E0009F097C01C8010E94030C8E159F05A0F453
:1043F00080916C0390916D0399278830910508F0A6
:10440000F9C06FE070E0C0D580529E4FDC01149679
:104410002C9122FF0E94B80F80910C01882319F182
:10442000009156031091570301151105E1F00E9408
:10443000E303801B910B2091A8023091A902281759
:10444000390788F49091540380915503981709F423
:10445000D4C00E94D1191092A9021092A802109201
:1044600057031092560386E0E2E6F3E0D301019091
:104470000D928A95E1F7B0906303E0906403D090C9
:104480006503F0906603C090670310926403109276
:1044900065031092660310926703E11003C0DD20EC
:1044A00009F443C000916003109161030E94E3038B
:1044B0009C01201B310B90915B03992309F4E7C405
:1044C0002531310590F19F3F19F09F5F90935B0379
:1044D000EE2049F00E94C90461E01E140CF06FEF59
:1044E0004AD580936403DD2049F00E94C9046FEF30
:1044F0001D140CF461E03FD5809365038091640343
:10450000882399F010916503112379F00E94EA0441
:10451000882309F47BC080936403812F0E94EA04FE
:10452000882309F477C080936503F11003C0CC2081
:1045300009F441C000915E0310915F030E94E30300
:104540009C01201B310B90915C03992309F4A4C4B6
:104550002135310580F19F3F19F09F5F90935C03F7
:10456000FF2049F00E94A50461E01F140CF06FEFDA
:1045700002D580936603CC2049F00E94A5046FEF1A
:104580001C140CF461E0F7D48093670380916603F8
:10459000882389F010916703112369F00E94EA04CF
:1045A0008823E1F180936603812F0E94EA04882327
:1045B000C9F180936703809163038B1137C08091A9
:1045C0006403882311F08E1131C080916503882324
:1045D00011F08D112BC080916703882311F08C118D
:1045E00025C090916603992319F081E0F9121FC04C
:1045F00080E01DC090E080E009CF0E947C191092FD
:104600005703109256030E9425052DCFB1E0B093B9
:10461000640383CFE1E0E093650387CFF1E0F0939B
:104620006603C2CF21E020936703C5CF81E080FD00
:1046300013C080916403811177C08091650381115B
:1046400073C08091660381116FC081E09091670310
:10465000911101C080E080FD0E947A0486E0F301A0
:10466000A2E6B3E001900D928A95E1F70E946504FD
:104670009091BD01891769F08093BD018FB7F894BF
:1046800040917303509174036091750370917603A8
:104690008FBF80918203843009F0E8CD83E080935E
:1046A000E9008091E80082FFE1CD8091E80090E090
:1046B00085FF09C00E94060300E210E07301882311
:1046C00009F43DC091E08091E8008B778093E80089
:1046D000992309F4CBCD0091CA011091CB018981B6
:1046E0000115110509F439C08E3F09F0F1C08A8126
:1046F000833020F08550833008F0EAC0EA81EE3044
:1047000008F0E6C0F0E0EA57FC4D62C4AC25C625CF
:10471000CC256824682403261326262668266D26C1
:10472000682468246824742681E095CF8091F10084
:10473000D7018D937D010150110909F4C3CF8091F8
:10474000E80085FDF3CF8091E8008B778093E80047
:104750000E940603882399F3B5CF8C3009F4DDC09D
:1047600050F5843009F4C5C058F4823009F479C09A
:1047700008F0B2C0813009F470C08FEF8983A8C0FF
:10478000863009F4C7C008F4BAC08B30B1F7809105
:10479000580390915903892B09F49AC0C3010E94D0
:1047A000F802BFEFE1EEF4E0B150E040F040E1F795
:1047B00000C0000043CD803109F4EDC008F041C0D5
:1047C0008E3009F4B1C008F4ABC0809158039091C9
:1047D0005903892B09F47CC04A805B80542445240A
:1047E00054248C818D3108F073C0C82ED12CF12C4B
:1047F000E12C4201B12CA12C830146185708F7EB9C
:104800004F1AFDEF5F0AC201800F911FA8014619E0
:10481000570970E060E04C155D056E057F0508F0F6
:1048200057C0480D591D6A1D7B1D473B514061050E
:10483000710520F4D80114966C9168D30F5F1F4F57
:10484000E2CF823109F4ACC008F4A8C0833109F486
:10485000EBC08E3F09F091CF51CF1A8289E08B8354
:1048600037C08A81823009F40BC3833099F08130DC
:1048700009F083CF2FB7F89480917303909174035C
:10488000A0917503B09176032FBFBB83AC839D834A
:104890008E831EC08091580390915903892BC1F0DB
:1048A0008091C2019091C3019B838C838091C4014C
:1048B0009091C5019D838E838091C6019091C7011F
:1048C0009F8388878091C8019091C90199878A87C1
:1048D000C3010E94F802CACC8A81823009F04DCF10
:1048E0006B817C818D819E8179D388E290E00ED3AB
:1048F000EFCF4C816B818A810E943D0AC8CF2D8108
:104900003E813227232732274C816B818A810E9486
:10491000DE09DECF0E94550BDBCF88E08A83D8CF3B
:10492000B1E0BA8387EB9BCF4A805B805424452457
:1049300054248C818D3160F6C82ED12CF12CE12CC1
:104940004201B12CA12C830146185708E7EB4E1AFF
:10495000EDEF5E0AC201800F911FA80146195709A9
:1049600070E060E04C155D056E057F0508F0B0CF86
:10497000480D591D6A1D7B1D473B5140610571055E
:1049800038F4A8D2D80114968C930F5F1F4FE2CF52
:10499000F8011482FACF0E94180B9ACF84E0BECFA0
:1049A0000A811B811027012710278C818D3108F087
:1049B0008FCF282F30E050E040E02BAB3CAB4DAB2D
:1049C0005EAB4801B12CA12C7301212C312C2101AB
:1049D00006191709075D1F4FC8018E0D9F1D2BA9D2
:1049E0003CA94DA95EA9221633064406550608F0D7
:1049F0006FCFB501A401420D531D641D751D4038D4
:104A000051406105710568F465D2D70114968C9305
:104A1000FFEF2F1A3F0A4F0A5F0A2FEFE21AF20A3E
:104A2000DBCFF7011482F4CF8A819B8198278927F5
:104A300098272C80E22CF12C3DE1E316F10408F0DC
:104A400047CF803841E0940708F042CF312C512CF9
:104A5000412C4C01B12CA12C40E851E060E070E009
:104A6000481959096A097B094215530564057505FA
:104A700008F42ECFDC019996BCABABAB2091580368
:104A800030915903232BC1F510E000E080FF0DC0E9
:104A9000889620D29D8189279827892781159C4750
:104AA00011F48FEF8D8301E010E0D201C101880D78
:104AB000991DAA1DBB1D670180FF1AC0E1E0CE1A37
:104AC000D10825E030E02C0F3D1F2C0D3D1D38AFE7
:104AD0002FAB8BA99CA98E0D9F1DFCD1AFA9B8ADA2
:104AE0009C9181159C4721F48FEFEFA9F8AD80834D
:104AF0002FEF0C151D0518F010E000E020C0F301A9
:104B0000E00FF11F848195818927982789278115D6
:104B10009C4711F4248325830E5F1F4FEACF480D75
:104B2000591D6A1D7B1D403851406105710528F4EF
:104B3000F301E00FF11F6481E9D10F5F1F4F8BA9D3
:104B40009CA9800F911FA80170E060E042155305F9
:104B50006405750520F3BCCE88E0E1E1F1E0DE01FB
:104B6000919601900D928A95E1F780E2D3011D9212
:104B70008A95E9F786E0898388E0FE01B196DE0137
:104B8000159601900D928A95E1F7A2CE8CEF89835C
:104B90001A821B821C829CCE8C81682F70E0762F3B
:104BA00066278B81860F972F911D092E000CAA0B6B
:104BB000BB0B35E0880F991FAA1FBB1F3A95D1F791
:104BC000AC01BD01405E5F4F6F4F7F4F48175907E3
:104BD0006A077B0708F47CCE8C3F9105A105B105DF
:104BE00008F076CE4D3F51056105710520F04CEF80
:104BF00050E060E070E0481B590BBC016B5A7E4FDF
:104C0000C3014FD165CE4AE150E06FEF70E0CE01B5
:104C1000079643D28091580389830A831B821C82A2
:104C20001D828BE035CE81E090E09093CB018093A4
:104C3000CA0182E390E09093C1018093C0010E9479
:104C4000E3039093BF018093BE0142CE012B81F11B
:104C5000F090C2018091C30183FB882780F9F8227C
:104C60000091BE011091BF010E94E303801B910BD4
:104C70008536910530F1FF2021F10E94E3039093E6
:104C8000BF018093BE018091C0019091C101019745
:104C90009093C1018093C001892B51F41092CB01F4
:104CA0001092CA0181E090E09093590380935803D9
:104CB0008091580389838091CA018A838091C001C1
:104CC000CECD82E390E09093C1018093C001F0CFFC
:104CD0001092590310925803FBCD40E250E06FEF61
:104CE00070E0C301DAD1F4CD8B81823009F455C074
:104CF000E8F4882309F445C0813009F0E9CD8C81BE
:104D00009AE0F92E8E010F5D1F4FD801EF2D1D92F5
:104D1000EA95E9F7B8010E94ED0B8983F801DE01FD
:104D2000129601900D92FA94E1F7D2CD833009F4F6
:104D30006BC0843009F0CCCD1C818AE0FE01359631
:104D4000DE01919601900D928A95E1F789A59AA5C9
:104D50000E944E059AA789A78FEF183070F4812F13
:104D600090E06AE070E010D1BC0167507E4F4AE0ED
:104D700050E0CE018196E8D080E089830E941E0C2D
:104D8000A7CD8EE1E9A9FAA911928A95E9F788E001
:104D900089838A8382E088A39BCD1C818AE0FE01FF
:104DA0003596DE01919601900D928A95E1F789A1E1
:104DB0009AA10E944E059AA389A38BA19CA10E944F
:104DC0004E059CA38BA38DA19EA10E944E059EA380
:104DD0008DA38FA198A50E944E0598A78FA38FEF52
:104DE000183070F4812F90E06AE070E0CDD0BC0103
:104DF00067557E4F4AE050E0CE018196A5D080E015
:104E000089830E94360564CD8C81FE01B1969AE0BB
:104E1000DF011D929A95E9F7883098F490E06AE0F6
:104E200070E0B2D0BC0167507E4F4AE050E0CF0145
:104E300041D080E089838AE0FE01B196DE011296BE
:104E4000A0CE8FEFF7CF80918103882309F4A9CA00
:104E500009BDF9BC09B400FEFDCF8091D8008F7D5B
:104E60008093D8008091E00082608093E000809180
:104E7000E00081FDFCCF109277030E948B0C91CA59
:104E800088E290E027D01B821C821D8201CD2B304E
:104E9000310508F01ACB49CB2B30310508F05DCB3A
:104EA0008ACBFB01DC0102C005900D9241505040BD
:104EB000D8F70895DC01CB01FC01F999FECF06C0BB
:104EC000F2BDE1BDF89A319600B40D9241505040C8
:104ED000B8F70895F999FECF92BD81BDF89A992748
:104EE00080B50895A8E1B0E042E050E0E5CFDC01F4
:104EF000A40FB51F4150504040F0CB01840F951FC7
:104F00002E9105D041505040D8F70895262FF99999
:104F1000FECF92BD81BDF89A019700B4021639F018
:104F20001FBA20BD0FB6F894FA9AF99A0FBE0895E9
:104F30000396272FECDFEADF252FE9DF242FE7CFC9
:104F40000196272FE4DFE2CFDC01CB0102C02D91D7
:104F500005D041505040D8F70895262FF999FECF3B
:104F60001FBA92BD81BD20BD0FB6F894FA9AF99A86
:104F70000FBE01960895002480FD060E660F11F005
:104F80008695D1F7802D08950024552704C0080E7A
:104F9000591F880F991F009729F076956795B8F3E8
:104FA0007105B9F7802D952F089597FB072E16F4FC
:104FB000009406D077FD08D04FD007FC05D03EF412
:104FC000909581959F4F0895709561957F4F0895B5
:104FD000EE0FFF1F0590F491E02D099469279627A5
:104FE000692778278727782708952F923F924F9235
:104FF0005F926F927F928F929F92AF92BF92CF9269
:10500000DF92EF92FF920F931F93CF93DF93CDB771
:10501000DEB7CA1BDB0B0FB6F894DEBF0FBECDBFE9
:1050200009942A88398848885F846E847D848C84BA
:105030009B84AA84B984C884DF80EE80FD800C81C3
:105040001B81AA81B981CE0FD11D0FB6F894DEBFA6
:105050000FBECDBFED010895AA1BBB1B51E107C0D8
:10506000AA1FBB1FA617B70710F0A61BB70B881FF8
:10507000991F5A95A9F780959095BC01CD01089587
:10508000FB01DC0104C08D910190801921F4415095
:105090005040C8F7881B990B0895DC0101C06D933F
:0C50A00041505040E0F70895F894FFCF15
:1050AC00EF039F09E2039A099509B2090100000177
:1050BC0000CEA701ED54990118818283E200E9002A
:1050CC00EA00B500B600B700CD008301CC008A0120
:1050DC0092019401210223022402250226022702B6
:1050EC002A02B300B4006F0070009F01CB019F0235
:1050FC00A002919293946465373635343332313053
:10510C00969544227B1101EF007400E303FC031C11
:02511C0004008D
:00000001FF
